{
	"data": {
		"bytecode": {
			"linkReferences": {},
			"object": "6080604052426005556000600660146101000a81548160ff0219169083151502179055503480156200003057600080fd5b506040516200187238038062001872833981810160405281019062000056919062000373565b836002908162000067919062000645565b5081600360006101000a81548173ffffffffffffffffffffffffffffffffffffffff021916908373ffffffffffffffffffffffffffffffffffffffff16021790555080600660006101000a81548173ffffffffffffffffffffffffffffffffffffffff021916908373ffffffffffffffffffffffffffffffffffffffff16021790555082600481905550505050506200072c565b6000604051905090565b600080fd5b600080fd5b600080fd5b600080fd5b6000601f19601f8301169050919050565b7f4e487b7100000000000000000000000000000000000000000000000000000000600052604160045260246000fd5b620001648262000119565b810181811067ffffffffffffffff821117156200018657620001856200012a565b5b80604052505050565b60006200019b620000fb565b9050620001a9828262000159565b919050565b600067ffffffffffffffff821115620001cc57620001cb6200012a565b5b620001d78262000119565b9050602081019050919050565b60005b8381101562000204578082015181840152602081019050620001e7565b60008484015250505050565b6000620002276200022184620001ae565b6200018f565b90508281526020810184848401111562000246576200024562000114565b5b62000253848285620001e4565b509392505050565b600082601f8301126200027357620002726200010f565b5b81516200028584826020860162000210565b91505092915050565b6000819050919050565b620002a3816200028e565b8114620002af57600080fd5b50565b600081519050620002c38162000298565b92915050565b600073ffffffffffffffffffffffffffffffffffffffff82169050919050565b6000620002f682620002c9565b9050919050565b6200030881620002e9565b81146200031457600080fd5b50565b6000815190506200032881620002fd565b92915050565b60006200033b82620002c9565b9050919050565b6200034d816200032e565b81146200035957600080fd5b50565b6000815190506200036d8162000342565b92915050565b6000806000806080858703121562000390576200038f62000105565b5b600085015167ffffffffffffffff811115620003b157620003b06200010a565b5b620003bf878288016200025b565b9450506020620003d287828801620002b2565b9350506040620003e58782880162000317565b9250506060620003f8878288016200035c565b91505092959194509250565b600081519050919050565b7f4e487b7100000000000000000000000000000000000000000000000000000000600052602260045260246000fd5b600060028204905060018216806200045757607f821691505b6020821081036200046d576200046c6200040f565b5b50919050565b60008190508160005260206000209050919050565b60006020601f8301049050919050565b600082821b905092915050565b600060088302620004d77fffffffffffffffffffffffffffffffffffffffffffffffffffffffffffffffff8262000498565b620004e3868362000498565b95508019841693508086168417925050509392505050565b6000819050919050565b600062000526620005206200051a846200028e565b620004fb565b6200028e565b9050919050565b6000819050919050565b620005428362000505565b6200055a62000551826200052d565b848454620004a5565b825550505050565b600090565b6200057162000562565b6200057e81848462000537565b505050565b5b81811015620005a6576200059a60008262000567565b60018101905062000584565b5050565b601f821115620005f557620005bf8162000473565b620005ca8462000488565b81016020851015620005da578190505b620005f2620005e98562000488565b83018262000583565b50505b505050565b600082821c905092915050565b60006200061a60001984600802620005fa565b1980831691505092915050565b600062000635838362000607565b9150826002028217905092915050565b620006508262000404565b67ffffffffffffffff8111156200066c576200066b6200012a565b5b6200067882546200043e565b62000685828285620005aa565b600060209050601f831160018114620006bd5760008415620006a8578287015190505b620006b4858262000627565b86555062000724565b601f198416620006cd8662000473565b60005b82811015620006f757848901518255600182019150602085019450602081019050620006d0565b8683101562000717578489015162000713601f89168262000607565b8355505b6001600288020188555050505b505050505050565b611136806200073c6000396000f3fe60806040526004361061004a5760003560e01c80632d9ed8d51461004f57806335fa96bb146100665780634051ddac14610082578063c0882525146100b4578063cf5b4fb1146100f1575b600080fd5b34801561005b57600080fd5b5061006461011c565b005b610080600480360381019061007b919061095a565b6101e1565b005b34801561008e57600080fd5b50610097610308565b6040516100ab989796959493929190610ac6565b60405180910390f35b3480156100c057600080fd5b506100db60048036038101906100d69190610b77565b61041d565b6040516100e89190610c32565b60405180910390f35b3480156100fd57600080fd5b5061010661057d565b6040516101139190610d5a565b60405180910390f35b600660009054906101000a900473ffffffffffffffffffffffffffffffffffffffff1673ffffffffffffffffffffffffffffffffffffffff163373ffffffffffffffffffffffffffffffffffffffff161461017657600080fd5b600660009054906101000a900473ffffffffffffffffffffffffffffffffffffffff1673ffffffffffffffffffffffffffffffffffffffff166108fc479081150290604051600060405180830381858888f193505050501580156101de573d6000803e3d6000fd5b50565b80518251146101ef57600080fd5b600660149054906101000a900460ff161561020957600080fd5b60045434101561021857600080fd5b60005b82518110156102e05761022c610700565b83828151811061023f5761023e610d7c565b5b6020026020010151816000018190525082828151811061026257610261610d7c565b5b60200260200101518160200181905250600181908060018154018082558091505060019003906000526020600020906002020160009091909190915060008201518160000190816102b39190610fb7565b5060208201518160010190816102c99190610fb7565b5050505080806102d8906110b8565b91505061021b565b5081516000819055506001600660146101000a81548160ff0219169083151502179055505050565b606060008060008060008060006002600360009054906101000a900473ffffffffffffffffffffffffffffffffffffffff16600660009054906101000a900473ffffffffffffffffffffffffffffffffffffffff16600454600554600054600660149054906101000a900460ff164787805461038390610dda565b80601f01602080910402602001604051908101604052809291908181526020018280546103af90610dda565b80156103fc5780601f106103d1576101008083540402835291602001916103fc565b820191906000526020600020905b8154815290600101906020018083116103df57829003601f168201915b50505050509750975097509750975097509750975097509091929394959697565b610425610700565b6001828154811061043957610438610d7c565b5b906000526020600020906002020160405180604001604052908160008201805461046290610dda565b80601f016020809104026020016040519081016040528092919081815260200182805461048e90610dda565b80156104db5780601f106104b0576101008083540402835291602001916104db565b820191906000526020600020905b8154815290600101906020018083116104be57829003601f168201915b505050505081526020016001820180546104f490610dda565b80601f016020809104026020016040519081016040528092919081815260200182805461052090610dda565b801561056d5780601f106105425761010080835404028352916020019161056d565b820191906000526020600020905b81548152906001019060200180831161055057829003601f168201915b5050505050815250509050919050565b60606001805480602002602001604051908101604052809291908181526020016000905b828210156106f757838290600052602060002090600202016040518060400160405290816000820180546105d490610dda565b80601f016020809104026020016040519081016040528092919081815260200182805461060090610dda565b801561064d5780601f106106225761010080835404028352916020019161064d565b820191906000526020600020905b81548152906001019060200180831161063057829003601f168201915b5050505050815260200160018201805461066690610dda565b80601f016020809104026020016040519081016040528092919081815260200182805461069290610dda565b80156106df5780601f106106b4576101008083540402835291602001916106df565b820191906000526020600020905b8154815290600101906020018083116106c257829003601f168201915b505050505081525050815260200190600101906105a1565b50505050905090565b604051806040016040528060608152602001606081525090565b6000604051905090565b600080fd5b600080fd5b600080fd5b6000601f19601f8301169050919050565b7f4e487b7100000000000000000000000000000000000000000000000000000000600052604160045260246000fd5b61077c82610733565b810181811067ffffffffffffffff8211171561079b5761079a610744565b5b80604052505050565b60006107ae61071a565b90506107ba8282610773565b919050565b600067ffffffffffffffff8211156107da576107d9610744565b5b602082029050602081019050919050565b600080fd5b600080fd5b600067ffffffffffffffff8211156108105761080f610744565b5b61081982610733565b9050602081019050919050565b82818337600083830152505050565b6000610848610843846107f5565b6107a4565b905082815260208101848484011115610864576108636107f0565b5b61086f848285610826565b509392505050565b600082601f83011261088c5761088b61072e565b5b813561089c848260208601610835565b91505092915050565b60006108b86108b3846107bf565b6107a4565b905080838252602082019050602084028301858111156108db576108da6107eb565b5b835b8181101561092257803567ffffffffffffffff811115610900576108ff61072e565b5b80860161090d8982610877565b855260208501945050506020810190506108dd565b5050509392505050565b600082601f8301126109415761094061072e565b5b81356109518482602086016108a5565b91505092915050565b6000806040838503121561097157610970610724565b5b600083013567ffffffffffffffff81111561098f5761098e610729565b5b61099b8582860161092c565b925050602083013567ffffffffffffffff8111156109bc576109bb610729565b5b6109c88582860161092c565b9150509250929050565b600081519050919050565b600082825260208201905092915050565b60005b83811015610a0c5780820151818401526020810190506109f1565b60008484015250505050565b6000610a23826109d2565b610a2d81856109dd565b9350610a3d8185602086016109ee565b610a4681610733565b840191505092915050565b600073ffffffffffffffffffffffffffffffffffffffff82169050919050565b6000610a7c82610a51565b9050919050565b610a8c81610a71565b82525050565b6000819050919050565b610aa581610a92565b82525050565b60008115159050919050565b610ac081610aab565b82525050565b6000610100820190508181036000830152610ae1818b610a18565b9050610af0602083018a610a83565b610afd6040830189610a83565b610b0a6060830188610a9c565b610b176080830187610a9c565b610b2460a0830186610a9c565b610b3160c0830185610ab7565b610b3e60e0830184610a9c565b9998505050505050505050565b610b5481610a92565b8114610b5f57600080fd5b50565b600081359050610b7181610b4b565b92915050565b600060208284031215610b8d57610b8c610724565b5b6000610b9b84828501610b62565b91505092915050565b600082825260208201905092915050565b6000610bc0826109d2565b610bca8185610ba4565b9350610bda8185602086016109ee565b610be381610733565b840191505092915050565b60006040830160008301518482036000860152610c0b8282610bb5565b91505060208301518482036020860152610c258282610bb5565b9150508091505092915050565b60006020820190508181036000830152610c4c8184610bee565b905092915050565b600081519050919050565b600082825260208201905092915050565b6000819050602082019050919050565b60006040830160008301518482036000860152610c9d8282610bb5565b91505060208301518482036020860152610cb78282610bb5565b9150508091505092915050565b6000610cd08383610c80565b905092915050565b6000602082019050919050565b6000610cf082610c54565b610cfa8185610c5f565b935083602082028501610d0c85610c70565b8060005b85811015610d485784840389528151610d298582610cc4565b9450610d3483610cd8565b925060208a01995050600181019050610d10565b50829750879550505050505092915050565b60006020820190508181036000830152610d748184610ce5565b905092915050565b7f4e487b7100000000000000000000000000000000000000000000000000000000600052603260045260246000fd5b7f4e487b7100000000000000000000000000000000000000000000000000000000600052602260045260246000fd5b60006002820490506001821680610df257607f821691505b602082108103610e0557610e04610dab565b5b50919050565b60008190508160005260206000209050919050565b60006020601f8301049050919050565b600082821b905092915050565b600060088302610e6d7fffffffffffffffffffffffffffffffffffffffffffffffffffffffffffffffff82610e30565b610e778683610e30565b95508019841693508086168417925050509392505050565b6000819050919050565b6000610eb4610eaf610eaa84610a92565b610e8f565b610a92565b9050919050565b6000819050919050565b610ece83610e99565b610ee2610eda82610ebb565b848454610e3d565b825550505050565b600090565b610ef7610eea565b610f02818484610ec5565b505050565b5b81811015610f2657610f1b600082610eef565b600181019050610f08565b5050565b601f821115610f6b57610f3c81610e0b565b610f4584610e20565b81016020851015610f54578190505b610f68610f6085610e20565b830182610f07565b50505b505050565b600082821c905092915050565b6000610f8e60001984600802610f70565b1980831691505092915050565b6000610fa78383610f7d565b9150826002028217905092915050565b610fc0826109d2565b67ffffffffffffffff811115610fd957610fd8610744565b5b610fe38254610dda565b610fee828285610f2a565b600060209050601f831160018114611021576000841561100f578287015190505b6110198582610f9b565b865550611081565b601f19841661102f86610e0b565b60005b8281101561105757848901518255600182019150602085019450602081019050611032565b868310156110745784890151611070601f891682610f7d565b8355505b6001600288020188555050505b505050505050565b7f4e487b7100000000000000000000000000000000000000000000000000000000600052601160045260246000fd5b60006110c382610a92565b91507fffffffffffffffffffffffffffffffffffffffffffffffffffffffffffffffff82036110f5576110f4611089565b5b60018201905091905056fea26469706673582212200640485aaa301a0f29b38b813bcbe0e9f8c8b056e6b9c03ab82226e61bb33d2164736f6c63430008110033",
			"opcodes": "PUSH1 0x80 PUSH1 0x40 MSTORE TIMESTAMP PUSH1 0x5 SSTORE PUSH1 0x0 PUSH1 0x6 PUSH1 0x14 PUSH2 0x100 EXP DUP2 SLOAD DUP2 PUSH1 0xFF MUL NOT AND SWAP1 DUP4 ISZERO ISZERO MUL OR SWAP1 SSTORE POP CALLVALUE DUP1 ISZERO PUSH3 0x30 JUMPI PUSH1 0x0 DUP1 REVERT JUMPDEST POP PUSH1 0x40 MLOAD PUSH3 0x1872 CODESIZE SUB DUP1 PUSH3 0x1872 DUP4 CODECOPY DUP2 DUP2 ADD PUSH1 0x40 MSTORE DUP2 ADD SWAP1 PUSH3 0x56 SWAP2 SWAP1 PUSH3 0x373 JUMP JUMPDEST DUP4 PUSH1 0x2 SWAP1 DUP2 PUSH3 0x67 SWAP2 SWAP1 PUSH3 0x645 JUMP JUMPDEST POP DUP2 PUSH1 0x3 PUSH1 0x0 PUSH2 0x100 EXP DUP2 SLOAD DUP2 PUSH20 0xFFFFFFFFFFFFFFFFFFFFFFFFFFFFFFFFFFFFFFFF MUL NOT AND SWAP1 DUP4 PUSH20 0xFFFFFFFFFFFFFFFFFFFFFFFFFFFFFFFFFFFFFFFF AND MUL OR SWAP1 SSTORE POP DUP1 PUSH1 0x6 PUSH1 0x0 PUSH2 0x100 EXP DUP2 SLOAD DUP2 PUSH20 0xFFFFFFFFFFFFFFFFFFFFFFFFFFFFFFFFFFFFFFFF MUL NOT AND SWAP1 DUP4 PUSH20 0xFFFFFFFFFFFFFFFFFFFFFFFFFFFFFFFFFFFFFFFF AND MUL OR SWAP1 SSTORE POP DUP3 PUSH1 0x4 DUP2 SWAP1 SSTORE POP POP POP POP POP PUSH3 0x72C JUMP JUMPDEST PUSH1 0x0 PUSH1 0x40 MLOAD SWAP1 POP SWAP1 JUMP JUMPDEST PUSH1 0x0 DUP1 REVERT JUMPDEST PUSH1 0x0 DUP1 REVERT JUMPDEST PUSH1 0x0 DUP1 REVERT JUMPDEST PUSH1 0x0 DUP1 REVERT JUMPDEST PUSH1 0x0 PUSH1 0x1F NOT PUSH1 0x1F DUP4 ADD AND SWAP1 POP SWAP2 SWAP1 POP JUMP JUMPDEST PUSH32 0x4E487B7100000000000000000000000000000000000000000000000000000000 PUSH1 0x0 MSTORE PUSH1 0x41 PUSH1 0x4 MSTORE PUSH1 0x24 PUSH1 0x0 REVERT JUMPDEST PUSH3 0x164 DUP3 PUSH3 0x119 JUMP JUMPDEST DUP2 ADD DUP2 DUP2 LT PUSH8 0xFFFFFFFFFFFFFFFF DUP3 GT OR ISZERO PUSH3 0x186 JUMPI PUSH3 0x185 PUSH3 0x12A JUMP JUMPDEST JUMPDEST DUP1 PUSH1 0x40 MSTORE POP POP POP JUMP JUMPDEST PUSH1 0x0 PUSH3 0x19B PUSH3 0xFB JUMP JUMPDEST SWAP1 POP PUSH3 0x1A9 DUP3 DUP3 PUSH3 0x159 JUMP JUMPDEST SWAP2 SWAP1 POP JUMP JUMPDEST PUSH1 0x0 PUSH8 0xFFFFFFFFFFFFFFFF DUP3 GT ISZERO PUSH3 0x1CC JUMPI PUSH3 0x1CB PUSH3 0x12A JUMP JUMPDEST JUMPDEST PUSH3 0x1D7 DUP3 PUSH3 0x119 JUMP JUMPDEST SWAP1 POP PUSH1 0x20 DUP2 ADD SWAP1 POP SWAP2 SWAP1 POP JUMP JUMPDEST PUSH1 0x0 JUMPDEST DUP4 DUP2 LT ISZERO PUSH3 0x204 JUMPI DUP1 DUP3 ADD MLOAD DUP2 DUP5 ADD MSTORE PUSH1 0x20 DUP2 ADD SWAP1 POP PUSH3 0x1E7 JUMP JUMPDEST PUSH1 0x0 DUP5 DUP5 ADD MSTORE POP POP POP POP JUMP JUMPDEST PUSH1 0x0 PUSH3 0x227 PUSH3 0x221 DUP5 PUSH3 0x1AE JUMP JUMPDEST PUSH3 0x18F JUMP JUMPDEST SWAP1 POP DUP3 DUP2 MSTORE PUSH1 0x20 DUP2 ADD DUP5 DUP5 DUP5 ADD GT ISZERO PUSH3 0x246 JUMPI PUSH3 0x245 PUSH3 0x114 JUMP JUMPDEST JUMPDEST PUSH3 0x253 DUP5 DUP3 DUP6 PUSH3 0x1E4 JUMP JUMPDEST POP SWAP4 SWAP3 POP POP POP JUMP JUMPDEST PUSH1 0x0 DUP3 PUSH1 0x1F DUP4 ADD SLT PUSH3 0x273 JUMPI PUSH3 0x272 PUSH3 0x10F JUMP JUMPDEST JUMPDEST DUP2 MLOAD PUSH3 0x285 DUP5 DUP3 PUSH1 0x20 DUP7 ADD PUSH3 0x210 JUMP JUMPDEST SWAP2 POP POP SWAP3 SWAP2 POP POP JUMP JUMPDEST PUSH1 0x0 DUP2 SWAP1 POP SWAP2 SWAP1 POP JUMP JUMPDEST PUSH3 0x2A3 DUP2 PUSH3 0x28E JUMP JUMPDEST DUP2 EQ PUSH3 0x2AF JUMPI PUSH1 0x0 DUP1 REVERT JUMPDEST POP JUMP JUMPDEST PUSH1 0x0 DUP2 MLOAD SWAP1 POP PUSH3 0x2C3 DUP2 PUSH3 0x298 JUMP JUMPDEST SWAP3 SWAP2 POP POP JUMP JUMPDEST PUSH1 0x0 PUSH20 0xFFFFFFFFFFFFFFFFFFFFFFFFFFFFFFFFFFFFFFFF DUP3 AND SWAP1 POP SWAP2 SWAP1 POP JUMP JUMPDEST PUSH1 0x0 PUSH3 0x2F6 DUP3 PUSH3 0x2C9 JUMP JUMPDEST SWAP1 POP SWAP2 SWAP1 POP JUMP JUMPDEST PUSH3 0x308 DUP2 PUSH3 0x2E9 JUMP JUMPDEST DUP2 EQ PUSH3 0x314 JUMPI PUSH1 0x0 DUP1 REVERT JUMPDEST POP JUMP JUMPDEST PUSH1 0x0 DUP2 MLOAD SWAP1 POP PUSH3 0x328 DUP2 PUSH3 0x2FD JUMP JUMPDEST SWAP3 SWAP2 POP POP JUMP JUMPDEST PUSH1 0x0 PUSH3 0x33B DUP3 PUSH3 0x2C9 JUMP JUMPDEST SWAP1 POP SWAP2 SWAP1 POP JUMP JUMPDEST PUSH3 0x34D DUP2 PUSH3 0x32E JUMP JUMPDEST DUP2 EQ PUSH3 0x359 JUMPI PUSH1 0x0 DUP1 REVERT JUMPDEST POP JUMP JUMPDEST PUSH1 0x0 DUP2 MLOAD SWAP1 POP PUSH3 0x36D DUP2 PUSH3 0x342 JUMP JUMPDEST SWAP3 SWAP2 POP POP JUMP JUMPDEST PUSH1 0x0 DUP1 PUSH1 0x0 DUP1 PUSH1 0x80 DUP6 DUP8 SUB SLT ISZERO PUSH3 0x390 JUMPI PUSH3 0x38F PUSH3 0x105 JUMP JUMPDEST JUMPDEST PUSH1 0x0 DUP6 ADD MLOAD PUSH8 0xFFFFFFFFFFFFFFFF DUP2 GT ISZERO PUSH3 0x3B1 JUMPI PUSH3 0x3B0 PUSH3 0x10A JUMP JUMPDEST JUMPDEST PUSH3 0x3BF DUP8 DUP3 DUP9 ADD PUSH3 0x25B JUMP JUMPDEST SWAP5 POP POP PUSH1 0x20 PUSH3 0x3D2 DUP8 DUP3 DUP9 ADD PUSH3 0x2B2 JUMP JUMPDEST SWAP4 POP POP PUSH1 0x40 PUSH3 0x3E5 DUP8 DUP3 DUP9 ADD PUSH3 0x317 JUMP JUMPDEST SWAP3 POP POP PUSH1 0x60 PUSH3 0x3F8 DUP8 DUP3 DUP9 ADD PUSH3 0x35C JUMP JUMPDEST SWAP2 POP POP SWAP3 SWAP6 SWAP2 SWAP5 POP SWAP3 POP JUMP JUMPDEST PUSH1 0x0 DUP2 MLOAD SWAP1 POP SWAP2 SWAP1 POP JUMP JUMPDEST PUSH32 0x4E487B7100000000000000000000000000000000000000000000000000000000 PUSH1 0x0 MSTORE PUSH1 0x22 PUSH1 0x4 MSTORE PUSH1 0x24 PUSH1 0x0 REVERT JUMPDEST PUSH1 0x0 PUSH1 0x2 DUP3 DIV SWAP1 POP PUSH1 0x1 DUP3 AND DUP1 PUSH3 0x457 JUMPI PUSH1 0x7F DUP3 AND SWAP2 POP JUMPDEST PUSH1 0x20 DUP3 LT DUP2 SUB PUSH3 0x46D JUMPI PUSH3 0x46C PUSH3 0x40F JUMP JUMPDEST JUMPDEST POP SWAP2 SWAP1 POP JUMP JUMPDEST PUSH1 0x0 DUP2 SWAP1 POP DUP2 PUSH1 0x0 MSTORE PUSH1 0x20 PUSH1 0x0 KECCAK256 SWAP1 POP SWAP2 SWAP1 POP JUMP JUMPDEST PUSH1 0x0 PUSH1 0x20 PUSH1 0x1F DUP4 ADD DIV SWAP1 POP SWAP2 SWAP1 POP JUMP JUMPDEST PUSH1 0x0 DUP3 DUP3 SHL SWAP1 POP SWAP3 SWAP2 POP POP JUMP JUMPDEST PUSH1 0x0 PUSH1 0x8 DUP4 MUL PUSH3 0x4D7 PUSH32 0xFFFFFFFFFFFFFFFFFFFFFFFFFFFFFFFFFFFFFFFFFFFFFFFFFFFFFFFFFFFFFFFF DUP3 PUSH3 0x498 JUMP JUMPDEST PUSH3 0x4E3 DUP7 DUP4 PUSH3 0x498 JUMP JUMPDEST SWAP6 POP DUP1 NOT DUP5 AND SWAP4 POP DUP1 DUP7 AND DUP5 OR SWAP3 POP POP POP SWAP4 SWAP3 POP POP POP JUMP JUMPDEST PUSH1 0x0 DUP2 SWAP1 POP SWAP2 SWAP1 POP JUMP JUMPDEST PUSH1 0x0 PUSH3 0x526 PUSH3 0x520 PUSH3 0x51A DUP5 PUSH3 0x28E JUMP JUMPDEST PUSH3 0x4FB JUMP JUMPDEST PUSH3 0x28E JUMP JUMPDEST SWAP1 POP SWAP2 SWAP1 POP JUMP JUMPDEST PUSH1 0x0 DUP2 SWAP1 POP SWAP2 SWAP1 POP JUMP JUMPDEST PUSH3 0x542 DUP4 PUSH3 0x505 JUMP JUMPDEST PUSH3 0x55A PUSH3 0x551 DUP3 PUSH3 0x52D JUMP JUMPDEST DUP5 DUP5 SLOAD PUSH3 0x4A5 JUMP JUMPDEST DUP3 SSTORE POP POP POP POP JUMP JUMPDEST PUSH1 0x0 SWAP1 JUMP JUMPDEST PUSH3 0x571 PUSH3 0x562 JUMP JUMPDEST PUSH3 0x57E DUP2 DUP5 DUP5 PUSH3 0x537 JUMP JUMPDEST POP POP POP JUMP JUMPDEST JUMPDEST DUP2 DUP2 LT ISZERO PUSH3 0x5A6 JUMPI PUSH3 0x59A PUSH1 0x0 DUP3 PUSH3 0x567 JUMP JUMPDEST PUSH1 0x1 DUP2 ADD SWAP1 POP PUSH3 0x584 JUMP JUMPDEST POP POP JUMP JUMPDEST PUSH1 0x1F DUP3 GT ISZERO PUSH3 0x5F5 JUMPI PUSH3 0x5BF DUP2 PUSH3 0x473 JUMP JUMPDEST PUSH3 0x5CA DUP5 PUSH3 0x488 JUMP JUMPDEST DUP2 ADD PUSH1 0x20 DUP6 LT ISZERO PUSH3 0x5DA JUMPI DUP2 SWAP1 POP JUMPDEST PUSH3 0x5F2 PUSH3 0x5E9 DUP6 PUSH3 0x488 JUMP JUMPDEST DUP4 ADD DUP3 PUSH3 0x583 JUMP JUMPDEST POP POP JUMPDEST POP POP POP JUMP JUMPDEST PUSH1 0x0 DUP3 DUP3 SHR SWAP1 POP SWAP3 SWAP2 POP POP JUMP JUMPDEST PUSH1 0x0 PUSH3 0x61A PUSH1 0x0 NOT DUP5 PUSH1 0x8 MUL PUSH3 0x5FA JUMP JUMPDEST NOT DUP1 DUP4 AND SWAP2 POP POP SWAP3 SWAP2 POP POP JUMP JUMPDEST PUSH1 0x0 PUSH3 0x635 DUP4 DUP4 PUSH3 0x607 JUMP JUMPDEST SWAP2 POP DUP3 PUSH1 0x2 MUL DUP3 OR SWAP1 POP SWAP3 SWAP2 POP POP JUMP JUMPDEST PUSH3 0x650 DUP3 PUSH3 0x404 JUMP JUMPDEST PUSH8 0xFFFFFFFFFFFFFFFF DUP2 GT ISZERO PUSH3 0x66C JUMPI PUSH3 0x66B PUSH3 0x12A JUMP JUMPDEST JUMPDEST PUSH3 0x678 DUP3 SLOAD PUSH3 0x43E JUMP JUMPDEST PUSH3 0x685 DUP3 DUP3 DUP6 PUSH3 0x5AA JUMP JUMPDEST PUSH1 0x0 PUSH1 0x20 SWAP1 POP PUSH1 0x1F DUP4 GT PUSH1 0x1 DUP2 EQ PUSH3 0x6BD JUMPI PUSH1 0x0 DUP5 ISZERO PUSH3 0x6A8 JUMPI DUP3 DUP8 ADD MLOAD SWAP1 POP JUMPDEST PUSH3 0x6B4 DUP6 DUP3 PUSH3 0x627 JUMP JUMPDEST DUP7 SSTORE POP PUSH3 0x724 JUMP JUMPDEST PUSH1 0x1F NOT DUP5 AND PUSH3 0x6CD DUP7 PUSH3 0x473 JUMP JUMPDEST PUSH1 0x0 JUMPDEST DUP3 DUP2 LT ISZERO PUSH3 0x6F7 JUMPI DUP5 DUP10 ADD MLOAD DUP3 SSTORE PUSH1 0x1 DUP3 ADD SWAP2 POP PUSH1 0x20 DUP6 ADD SWAP5 POP PUSH1 0x20 DUP2 ADD SWAP1 POP PUSH3 0x6D0 JUMP JUMPDEST DUP7 DUP4 LT ISZERO PUSH3 0x717 JUMPI DUP5 DUP10 ADD MLOAD PUSH3 0x713 PUSH1 0x1F DUP10 AND DUP3 PUSH3 0x607 JUMP JUMPDEST DUP4 SSTORE POP JUMPDEST PUSH1 0x1 PUSH1 0x2 DUP9 MUL ADD DUP9 SSTORE POP POP POP JUMPDEST POP POP POP POP POP POP JUMP JUMPDEST PUSH2 0x1136 DUP1 PUSH3 0x73C PUSH1 0x0 CODECOPY PUSH1 0x0 RETURN INVALID PUSH1 0x80 PUSH1 0x40 MSTORE PUSH1 0x4 CALLDATASIZE LT PUSH2 0x4A JUMPI PUSH1 0x0 CALLDATALOAD PUSH1 0xE0 SHR DUP1 PUSH4 0x2D9ED8D5 EQ PUSH2 0x4F JUMPI DUP1 PUSH4 0x35FA96BB EQ PUSH2 0x66 JUMPI DUP1 PUSH4 0x4051DDAC EQ PUSH2 0x82 JUMPI DUP1 PUSH4 0xC0882525 EQ PUSH2 0xB4 JUMPI DUP1 PUSH4 0xCF5B4FB1 EQ PUSH2 0xF1 JUMPI JUMPDEST PUSH1 0x0 DUP1 REVERT JUMPDEST CALLVALUE DUP1 ISZERO PUSH2 0x5B JUMPI PUSH1 0x0 DUP1 REVERT JUMPDEST POP PUSH2 0x64 PUSH2 0x11C JUMP JUMPDEST STOP JUMPDEST PUSH2 0x80 PUSH1 0x4 DUP1 CALLDATASIZE SUB DUP2 ADD SWAP1 PUSH2 0x7B SWAP2 SWAP1 PUSH2 0x95A JUMP JUMPDEST PUSH2 0x1E1 JUMP JUMPDEST STOP JUMPDEST CALLVALUE DUP1 ISZERO PUSH2 0x8E JUMPI PUSH1 0x0 DUP1 REVERT JUMPDEST POP PUSH2 0x97 PUSH2 0x308 JUMP JUMPDEST PUSH1 0x40 MLOAD PUSH2 0xAB SWAP9 SWAP8 SWAP7 SWAP6 SWAP5 SWAP4 SWAP3 SWAP2 SWAP1 PUSH2 0xAC6 JUMP JUMPDEST PUSH1 0x40 MLOAD DUP1 SWAP2 SUB SWAP1 RETURN JUMPDEST CALLVALUE DUP1 ISZERO PUSH2 0xC0 JUMPI PUSH1 0x0 DUP1 REVERT JUMPDEST POP PUSH2 0xDB PUSH1 0x4 DUP1 CALLDATASIZE SUB DUP2 ADD SWAP1 PUSH2 0xD6 SWAP2 SWAP1 PUSH2 0xB77 JUMP JUMPDEST PUSH2 0x41D JUMP JUMPDEST PUSH1 0x40 MLOAD PUSH2 0xE8 SWAP2 SWAP1 PUSH2 0xC32 JUMP JUMPDEST PUSH1 0x40 MLOAD DUP1 SWAP2 SUB SWAP1 RETURN JUMPDEST CALLVALUE DUP1 ISZERO PUSH2 0xFD JUMPI PUSH1 0x0 DUP1 REVERT JUMPDEST POP PUSH2 0x106 PUSH2 0x57D JUMP JUMPDEST PUSH1 0x40 MLOAD PUSH2 0x113 SWAP2 SWAP1 PUSH2 0xD5A JUMP JUMPDEST PUSH1 0x40 MLOAD DUP1 SWAP2 SUB SWAP1 RETURN JUMPDEST PUSH1 0x6 PUSH1 0x0 SWAP1 SLOAD SWAP1 PUSH2 0x100 EXP SWAP1 DIV PUSH20 0xFFFFFFFFFFFFFFFFFFFFFFFFFFFFFFFFFFFFFFFF AND PUSH20 0xFFFFFFFFFFFFFFFFFFFFFFFFFFFFFFFFFFFFFFFF AND CALLER PUSH20 0xFFFFFFFFFFFFFFFFFFFFFFFFFFFFFFFFFFFFFFFF AND EQ PUSH2 0x176 JUMPI PUSH1 0x0 DUP1 REVERT JUMPDEST PUSH1 0x6 PUSH1 0x0 SWAP1 SLOAD SWAP1 PUSH2 0x100 EXP SWAP1 DIV PUSH20 0xFFFFFFFFFFFFFFFFFFFFFFFFFFFFFFFFFFFFFFFF AND PUSH20 0xFFFFFFFFFFFFFFFFFFFFFFFFFFFFFFFFFFFFFFFF AND PUSH2 0x8FC SELFBALANCE SWAP1 DUP2 ISZERO MUL SWAP1 PUSH1 0x40 MLOAD PUSH1 0x0 PUSH1 0x40 MLOAD DUP1 DUP4 SUB DUP2 DUP6 DUP9 DUP9 CALL SWAP4 POP POP POP POP ISZERO DUP1 ISZERO PUSH2 0x1DE JUMPI RETURNDATASIZE PUSH1 0x0 DUP1 RETURNDATACOPY RETURNDATASIZE PUSH1 0x0 REVERT JUMPDEST POP JUMP JUMPDEST DUP1 MLOAD DUP3 MLOAD EQ PUSH2 0x1EF JUMPI PUSH1 0x0 DUP1 REVERT JUMPDEST PUSH1 0x6 PUSH1 0x14 SWAP1 SLOAD SWAP1 PUSH2 0x100 EXP SWAP1 DIV PUSH1 0xFF AND ISZERO PUSH2 0x209 JUMPI PUSH1 0x0 DUP1 REVERT JUMPDEST PUSH1 0x4 SLOAD CALLVALUE LT ISZERO PUSH2 0x218 JUMPI PUSH1 0x0 DUP1 REVERT JUMPDEST PUSH1 0x0 JUMPDEST DUP3 MLOAD DUP2 LT ISZERO PUSH2 0x2E0 JUMPI PUSH2 0x22C PUSH2 0x700 JUMP JUMPDEST DUP4 DUP3 DUP2 MLOAD DUP2 LT PUSH2 0x23F JUMPI PUSH2 0x23E PUSH2 0xD7C JUMP JUMPDEST JUMPDEST PUSH1 0x20 MUL PUSH1 0x20 ADD ADD MLOAD DUP2 PUSH1 0x0 ADD DUP2 SWAP1 MSTORE POP DUP3 DUP3 DUP2 MLOAD DUP2 LT PUSH2 0x262 JUMPI PUSH2 0x261 PUSH2 0xD7C JUMP JUMPDEST JUMPDEST PUSH1 0x20 MUL PUSH1 0x20 ADD ADD MLOAD DUP2 PUSH1 0x20 ADD DUP2 SWAP1 MSTORE POP PUSH1 0x1 DUP2 SWAP1 DUP1 PUSH1 0x1 DUP2 SLOAD ADD DUP1 DUP3 SSTORE DUP1 SWAP2 POP POP PUSH1 0x1 SWAP1 SUB SWAP1 PUSH1 0x0 MSTORE PUSH1 0x20 PUSH1 0x0 KECCAK256 SWAP1 PUSH1 0x2 MUL ADD PUSH1 0x0 SWAP1 SWAP2 SWAP1 SWAP2 SWAP1 SWAP2 POP PUSH1 0x0 DUP3 ADD MLOAD DUP2 PUSH1 0x0 ADD SWAP1 DUP2 PUSH2 0x2B3 SWAP2 SWAP1 PUSH2 0xFB7 JUMP JUMPDEST POP PUSH1 0x20 DUP3 ADD MLOAD DUP2 PUSH1 0x1 ADD SWAP1 DUP2 PUSH2 0x2C9 SWAP2 SWAP1 PUSH2 0xFB7 JUMP JUMPDEST POP POP POP POP DUP1 DUP1 PUSH2 0x2D8 SWAP1 PUSH2 0x10B8 JUMP JUMPDEST SWAP2 POP POP PUSH2 0x21B JUMP JUMPDEST POP DUP2 MLOAD PUSH1 0x0 DUP2 SWAP1 SSTORE POP PUSH1 0x1 PUSH1 0x6 PUSH1 0x14 PUSH2 0x100 EXP DUP2 SLOAD DUP2 PUSH1 0xFF MUL NOT AND SWAP1 DUP4 ISZERO ISZERO MUL OR SWAP1 SSTORE POP POP POP JUMP JUMPDEST PUSH1 0x60 PUSH1 0x0 DUP1 PUSH1 0x0 DUP1 PUSH1 0x0 DUP1 PUSH1 0x0 PUSH1 0x2 PUSH1 0x3 PUSH1 0x0 SWAP1 SLOAD SWAP1 PUSH2 0x100 EXP SWAP1 DIV PUSH20 0xFFFFFFFFFFFFFFFFFFFFFFFFFFFFFFFFFFFFFFFF AND PUSH1 0x6 PUSH1 0x0 SWAP1 SLOAD SWAP1 PUSH2 0x100 EXP SWAP1 DIV PUSH20 0xFFFFFFFFFFFFFFFFFFFFFFFFFFFFFFFFFFFFFFFF AND PUSH1 0x4 SLOAD PUSH1 0x5 SLOAD PUSH1 0x0 SLOAD PUSH1 0x6 PUSH1 0x14 SWAP1 SLOAD SWAP1 PUSH2 0x100 EXP SWAP1 DIV PUSH1 0xFF AND SELFBALANCE DUP8 DUP1 SLOAD PUSH2 0x383 SWAP1 PUSH2 0xDDA JUMP JUMPDEST DUP1 PUSH1 0x1F ADD PUSH1 0x20 DUP1 SWAP2 DIV MUL PUSH1 0x20 ADD PUSH1 0x40 MLOAD SWAP1 DUP2 ADD PUSH1 0x40 MSTORE DUP1 SWAP3 SWAP2 SWAP1 DUP2 DUP2 MSTORE PUSH1 0x20 ADD DUP3 DUP1 SLOAD PUSH2 0x3AF SWAP1 PUSH2 0xDDA JUMP JUMPDEST DUP1 ISZERO PUSH2 0x3FC JUMPI DUP1 PUSH1 0x1F LT PUSH2 0x3D1 JUMPI PUSH2 0x100 DUP1 DUP4 SLOAD DIV MUL DUP4 MSTORE SWAP2 PUSH1 0x20 ADD SWAP2 PUSH2 0x3FC JUMP JUMPDEST DUP3 ADD SWAP2 SWAP1 PUSH1 0x0 MSTORE PUSH1 0x20 PUSH1 0x0 KECCAK256 SWAP1 JUMPDEST DUP2 SLOAD DUP2 MSTORE SWAP1 PUSH1 0x1 ADD SWAP1 PUSH1 0x20 ADD DUP1 DUP4 GT PUSH2 0x3DF JUMPI DUP3 SWAP1 SUB PUSH1 0x1F AND DUP3 ADD SWAP2 JUMPDEST POP POP POP POP POP SWAP8 POP SWAP8 POP SWAP8 POP SWAP8 POP SWAP8 POP SWAP8 POP SWAP8 POP SWAP8 POP SWAP8 POP SWAP1 SWAP2 SWAP3 SWAP4 SWAP5 SWAP6 SWAP7 SWAP8 JUMP JUMPDEST PUSH2 0x425 PUSH2 0x700 JUMP JUMPDEST PUSH1 0x1 DUP3 DUP2 SLOAD DUP2 LT PUSH2 0x439 JUMPI PUSH2 0x438 PUSH2 0xD7C JUMP JUMPDEST JUMPDEST SWAP1 PUSH1 0x0 MSTORE PUSH1 0x20 PUSH1 0x0 KECCAK256 SWAP1 PUSH1 0x2 MUL ADD PUSH1 0x40 MLOAD DUP1 PUSH1 0x40 ADD PUSH1 0x40 MSTORE SWAP1 DUP2 PUSH1 0x0 DUP3 ADD DUP1 SLOAD PUSH2 0x462 SWAP1 PUSH2 0xDDA JUMP JUMPDEST DUP1 PUSH1 0x1F ADD PUSH1 0x20 DUP1 SWAP2 DIV MUL PUSH1 0x20 ADD PUSH1 0x40 MLOAD SWAP1 DUP2 ADD PUSH1 0x40 MSTORE DUP1 SWAP3 SWAP2 SWAP1 DUP2 DUP2 MSTORE PUSH1 0x20 ADD DUP3 DUP1 SLOAD PUSH2 0x48E SWAP1 PUSH2 0xDDA JUMP JUMPDEST DUP1 ISZERO PUSH2 0x4DB JUMPI DUP1 PUSH1 0x1F LT PUSH2 0x4B0 JUMPI PUSH2 0x100 DUP1 DUP4 SLOAD DIV MUL DUP4 MSTORE SWAP2 PUSH1 0x20 ADD SWAP2 PUSH2 0x4DB JUMP JUMPDEST DUP3 ADD SWAP2 SWAP1 PUSH1 0x0 MSTORE PUSH1 0x20 PUSH1 0x0 KECCAK256 SWAP1 JUMPDEST DUP2 SLOAD DUP2 MSTORE SWAP1 PUSH1 0x1 ADD SWAP1 PUSH1 0x20 ADD DUP1 DUP4 GT PUSH2 0x4BE JUMPI DUP3 SWAP1 SUB PUSH1 0x1F AND DUP3 ADD SWAP2 JUMPDEST POP POP POP POP POP DUP2 MSTORE PUSH1 0x20 ADD PUSH1 0x1 DUP3 ADD DUP1 SLOAD PUSH2 0x4F4 SWAP1 PUSH2 0xDDA JUMP JUMPDEST DUP1 PUSH1 0x1F ADD PUSH1 0x20 DUP1 SWAP2 DIV MUL PUSH1 0x20 ADD PUSH1 0x40 MLOAD SWAP1 DUP2 ADD PUSH1 0x40 MSTORE DUP1 SWAP3 SWAP2 SWAP1 DUP2 DUP2 MSTORE PUSH1 0x20 ADD DUP3 DUP1 SLOAD PUSH2 0x520 SWAP1 PUSH2 0xDDA JUMP JUMPDEST DUP1 ISZERO PUSH2 0x56D JUMPI DUP1 PUSH1 0x1F LT PUSH2 0x542 JUMPI PUSH2 0x100 DUP1 DUP4 SLOAD DIV MUL DUP4 MSTORE SWAP2 PUSH1 0x20 ADD SWAP2 PUSH2 0x56D JUMP JUMPDEST DUP3 ADD SWAP2 SWAP1 PUSH1 0x0 MSTORE PUSH1 0x20 PUSH1 0x0 KECCAK256 SWAP1 JUMPDEST DUP2 SLOAD DUP2 MSTORE SWAP1 PUSH1 0x1 ADD SWAP1 PUSH1 0x20 ADD DUP1 DUP4 GT PUSH2 0x550 JUMPI DUP3 SWAP1 SUB PUSH1 0x1F AND DUP3 ADD SWAP2 JUMPDEST POP POP POP POP POP DUP2 MSTORE POP POP SWAP1 POP SWAP2 SWAP1 POP JUMP JUMPDEST PUSH1 0x60 PUSH1 0x1 DUP1 SLOAD DUP1 PUSH1 0x20 MUL PUSH1 0x20 ADD PUSH1 0x40 MLOAD SWAP1 DUP2 ADD PUSH1 0x40 MSTORE DUP1 SWAP3 SWAP2 SWAP1 DUP2 DUP2 MSTORE PUSH1 0x20 ADD PUSH1 0x0 SWAP1 JUMPDEST DUP3 DUP3 LT ISZERO PUSH2 0x6F7 JUMPI DUP4 DUP3 SWAP1 PUSH1 0x0 MSTORE PUSH1 0x20 PUSH1 0x0 KECCAK256 SWAP1 PUSH1 0x2 MUL ADD PUSH1 0x40 MLOAD DUP1 PUSH1 0x40 ADD PUSH1 0x40 MSTORE SWAP1 DUP2 PUSH1 0x0 DUP3 ADD DUP1 SLOAD PUSH2 0x5D4 SWAP1 PUSH2 0xDDA JUMP JUMPDEST DUP1 PUSH1 0x1F ADD PUSH1 0x20 DUP1 SWAP2 DIV MUL PUSH1 0x20 ADD PUSH1 0x40 MLOAD SWAP1 DUP2 ADD PUSH1 0x40 MSTORE DUP1 SWAP3 SWAP2 SWAP1 DUP2 DUP2 MSTORE PUSH1 0x20 ADD DUP3 DUP1 SLOAD PUSH2 0x600 SWAP1 PUSH2 0xDDA JUMP JUMPDEST DUP1 ISZERO PUSH2 0x64D JUMPI DUP1 PUSH1 0x1F LT PUSH2 0x622 JUMPI PUSH2 0x100 DUP1 DUP4 SLOAD DIV MUL DUP4 MSTORE SWAP2 PUSH1 0x20 ADD SWAP2 PUSH2 0x64D JUMP JUMPDEST DUP3 ADD SWAP2 SWAP1 PUSH1 0x0 MSTORE PUSH1 0x20 PUSH1 0x0 KECCAK256 SWAP1 JUMPDEST DUP2 SLOAD DUP2 MSTORE SWAP1 PUSH1 0x1 ADD SWAP1 PUSH1 0x20 ADD DUP1 DUP4 GT PUSH2 0x630 JUMPI DUP3 SWAP1 SUB PUSH1 0x1F AND DUP3 ADD SWAP2 JUMPDEST POP POP POP POP POP DUP2 MSTORE PUSH1 0x20 ADD PUSH1 0x1 DUP3 ADD DUP1 SLOAD PUSH2 0x666 SWAP1 PUSH2 0xDDA JUMP JUMPDEST DUP1 PUSH1 0x1F ADD PUSH1 0x20 DUP1 SWAP2 DIV MUL PUSH1 0x20 ADD PUSH1 0x40 MLOAD SWAP1 DUP2 ADD PUSH1 0x40 MSTORE DUP1 SWAP3 SWAP2 SWAP1 DUP2 DUP2 MSTORE PUSH1 0x20 ADD DUP3 DUP1 SLOAD PUSH2 0x692 SWAP1 PUSH2 0xDDA JUMP JUMPDEST DUP1 ISZERO PUSH2 0x6DF JUMPI DUP1 PUSH1 0x1F LT PUSH2 0x6B4 JUMPI PUSH2 0x100 DUP1 DUP4 SLOAD DIV MUL DUP4 MSTORE SWAP2 PUSH1 0x20 ADD SWAP2 PUSH2 0x6DF JUMP JUMPDEST DUP3 ADD SWAP2 SWAP1 PUSH1 0x0 MSTORE PUSH1 0x20 PUSH1 0x0 KECCAK256 SWAP1 JUMPDEST DUP2 SLOAD DUP2 MSTORE SWAP1 PUSH1 0x1 ADD SWAP1 PUSH1 0x20 ADD DUP1 DUP4 GT PUSH2 0x6C2 JUMPI DUP3 SWAP1 SUB PUSH1 0x1F AND DUP3 ADD SWAP2 JUMPDEST POP POP POP POP POP DUP2 MSTORE POP POP DUP2 MSTORE PUSH1 0x20 ADD SWAP1 PUSH1 0x1 ADD SWAP1 PUSH2 0x5A1 JUMP JUMPDEST POP POP POP POP SWAP1 POP SWAP1 JUMP JUMPDEST PUSH1 0x40 MLOAD DUP1 PUSH1 0x40 ADD PUSH1 0x40 MSTORE DUP1 PUSH1 0x60 DUP2 MSTORE PUSH1 0x20 ADD PUSH1 0x60 DUP2 MSTORE POP SWAP1 JUMP JUMPDEST PUSH1 0x0 PUSH1 0x40 MLOAD SWAP1 POP SWAP1 JUMP JUMPDEST PUSH1 0x0 DUP1 REVERT JUMPDEST PUSH1 0x0 DUP1 REVERT JUMPDEST PUSH1 0x0 DUP1 REVERT JUMPDEST PUSH1 0x0 PUSH1 0x1F NOT PUSH1 0x1F DUP4 ADD AND SWAP1 POP SWAP2 SWAP1 POP JUMP JUMPDEST PUSH32 0x4E487B7100000000000000000000000000000000000000000000000000000000 PUSH1 0x0 MSTORE PUSH1 0x41 PUSH1 0x4 MSTORE PUSH1 0x24 PUSH1 0x0 REVERT JUMPDEST PUSH2 0x77C DUP3 PUSH2 0x733 JUMP JUMPDEST DUP2 ADD DUP2 DUP2 LT PUSH8 0xFFFFFFFFFFFFFFFF DUP3 GT OR ISZERO PUSH2 0x79B JUMPI PUSH2 0x79A PUSH2 0x744 JUMP JUMPDEST JUMPDEST DUP1 PUSH1 0x40 MSTORE POP POP POP JUMP JUMPDEST PUSH1 0x0 PUSH2 0x7AE PUSH2 0x71A JUMP JUMPDEST SWAP1 POP PUSH2 0x7BA DUP3 DUP3 PUSH2 0x773 JUMP JUMPDEST SWAP2 SWAP1 POP JUMP JUMPDEST PUSH1 0x0 PUSH8 0xFFFFFFFFFFFFFFFF DUP3 GT ISZERO PUSH2 0x7DA JUMPI PUSH2 0x7D9 PUSH2 0x744 JUMP JUMPDEST JUMPDEST PUSH1 0x20 DUP3 MUL SWAP1 POP PUSH1 0x20 DUP2 ADD SWAP1 POP SWAP2 SWAP1 POP JUMP JUMPDEST PUSH1 0x0 DUP1 REVERT JUMPDEST PUSH1 0x0 DUP1 REVERT JUMPDEST PUSH1 0x0 PUSH8 0xFFFFFFFFFFFFFFFF DUP3 GT ISZERO PUSH2 0x810 JUMPI PUSH2 0x80F PUSH2 0x744 JUMP JUMPDEST JUMPDEST PUSH2 0x819 DUP3 PUSH2 0x733 JUMP JUMPDEST SWAP1 POP PUSH1 0x20 DUP2 ADD SWAP1 POP SWAP2 SWAP1 POP JUMP JUMPDEST DUP3 DUP2 DUP4 CALLDATACOPY PUSH1 0x0 DUP4 DUP4 ADD MSTORE POP POP POP JUMP JUMPDEST PUSH1 0x0 PUSH2 0x848 PUSH2 0x843 DUP5 PUSH2 0x7F5 JUMP JUMPDEST PUSH2 0x7A4 JUMP JUMPDEST SWAP1 POP DUP3 DUP2 MSTORE PUSH1 0x20 DUP2 ADD DUP5 DUP5 DUP5 ADD GT ISZERO PUSH2 0x864 JUMPI PUSH2 0x863 PUSH2 0x7F0 JUMP JUMPDEST JUMPDEST PUSH2 0x86F DUP5 DUP3 DUP6 PUSH2 0x826 JUMP JUMPDEST POP SWAP4 SWAP3 POP POP POP JUMP JUMPDEST PUSH1 0x0 DUP3 PUSH1 0x1F DUP4 ADD SLT PUSH2 0x88C JUMPI PUSH2 0x88B PUSH2 0x72E JUMP JUMPDEST JUMPDEST DUP2 CALLDATALOAD PUSH2 0x89C DUP5 DUP3 PUSH1 0x20 DUP7 ADD PUSH2 0x835 JUMP JUMPDEST SWAP2 POP POP SWAP3 SWAP2 POP POP JUMP JUMPDEST PUSH1 0x0 PUSH2 0x8B8 PUSH2 0x8B3 DUP5 PUSH2 0x7BF JUMP JUMPDEST PUSH2 0x7A4 JUMP JUMPDEST SWAP1 POP DUP1 DUP4 DUP3 MSTORE PUSH1 0x20 DUP3 ADD SWAP1 POP PUSH1 0x20 DUP5 MUL DUP4 ADD DUP6 DUP2 GT ISZERO PUSH2 0x8DB JUMPI PUSH2 0x8DA PUSH2 0x7EB JUMP JUMPDEST JUMPDEST DUP4 JUMPDEST DUP2 DUP2 LT ISZERO PUSH2 0x922 JUMPI DUP1 CALLDATALOAD PUSH8 0xFFFFFFFFFFFFFFFF DUP2 GT ISZERO PUSH2 0x900 JUMPI PUSH2 0x8FF PUSH2 0x72E JUMP JUMPDEST JUMPDEST DUP1 DUP7 ADD PUSH2 0x90D DUP10 DUP3 PUSH2 0x877 JUMP JUMPDEST DUP6 MSTORE PUSH1 0x20 DUP6 ADD SWAP5 POP POP POP PUSH1 0x20 DUP2 ADD SWAP1 POP PUSH2 0x8DD JUMP JUMPDEST POP POP POP SWAP4 SWAP3 POP POP POP JUMP JUMPDEST PUSH1 0x0 DUP3 PUSH1 0x1F DUP4 ADD SLT PUSH2 0x941 JUMPI PUSH2 0x940 PUSH2 0x72E JUMP JUMPDEST JUMPDEST DUP2 CALLDATALOAD PUSH2 0x951 DUP5 DUP3 PUSH1 0x20 DUP7 ADD PUSH2 0x8A5 JUMP JUMPDEST SWAP2 POP POP SWAP3 SWAP2 POP POP JUMP JUMPDEST PUSH1 0x0 DUP1 PUSH1 0x40 DUP4 DUP6 SUB SLT ISZERO PUSH2 0x971 JUMPI PUSH2 0x970 PUSH2 0x724 JUMP JUMPDEST JUMPDEST PUSH1 0x0 DUP4 ADD CALLDATALOAD PUSH8 0xFFFFFFFFFFFFFFFF DUP2 GT ISZERO PUSH2 0x98F JUMPI PUSH2 0x98E PUSH2 0x729 JUMP JUMPDEST JUMPDEST PUSH2 0x99B DUP6 DUP3 DUP7 ADD PUSH2 0x92C JUMP JUMPDEST SWAP3 POP POP PUSH1 0x20 DUP4 ADD CALLDATALOAD PUSH8 0xFFFFFFFFFFFFFFFF DUP2 GT ISZERO PUSH2 0x9BC JUMPI PUSH2 0x9BB PUSH2 0x729 JUMP JUMPDEST JUMPDEST PUSH2 0x9C8 DUP6 DUP3 DUP7 ADD PUSH2 0x92C JUMP JUMPDEST SWAP2 POP POP SWAP3 POP SWAP3 SWAP1 POP JUMP JUMPDEST PUSH1 0x0 DUP2 MLOAD SWAP1 POP SWAP2 SWAP1 POP JUMP JUMPDEST PUSH1 0x0 DUP3 DUP3 MSTORE PUSH1 0x20 DUP3 ADD SWAP1 POP SWAP3 SWAP2 POP POP JUMP JUMPDEST PUSH1 0x0 JUMPDEST DUP4 DUP2 LT ISZERO PUSH2 0xA0C JUMPI DUP1 DUP3 ADD MLOAD DUP2 DUP5 ADD MSTORE PUSH1 0x20 DUP2 ADD SWAP1 POP PUSH2 0x9F1 JUMP JUMPDEST PUSH1 0x0 DUP5 DUP5 ADD MSTORE POP POP POP POP JUMP JUMPDEST PUSH1 0x0 PUSH2 0xA23 DUP3 PUSH2 0x9D2 JUMP JUMPDEST PUSH2 0xA2D DUP2 DUP6 PUSH2 0x9DD JUMP JUMPDEST SWAP4 POP PUSH2 0xA3D DUP2 DUP6 PUSH1 0x20 DUP7 ADD PUSH2 0x9EE JUMP JUMPDEST PUSH2 0xA46 DUP2 PUSH2 0x733 JUMP JUMPDEST DUP5 ADD SWAP2 POP POP SWAP3 SWAP2 POP POP JUMP JUMPDEST PUSH1 0x0 PUSH20 0xFFFFFFFFFFFFFFFFFFFFFFFFFFFFFFFFFFFFFFFF DUP3 AND SWAP1 POP SWAP2 SWAP1 POP JUMP JUMPDEST PUSH1 0x0 PUSH2 0xA7C DUP3 PUSH2 0xA51 JUMP JUMPDEST SWAP1 POP SWAP2 SWAP1 POP JUMP JUMPDEST PUSH2 0xA8C DUP2 PUSH2 0xA71 JUMP JUMPDEST DUP3 MSTORE POP POP JUMP JUMPDEST PUSH1 0x0 DUP2 SWAP1 POP SWAP2 SWAP1 POP JUMP JUMPDEST PUSH2 0xAA5 DUP2 PUSH2 0xA92 JUMP JUMPDEST DUP3 MSTORE POP POP JUMP JUMPDEST PUSH1 0x0 DUP2 ISZERO ISZERO SWAP1 POP SWAP2 SWAP1 POP JUMP JUMPDEST PUSH2 0xAC0 DUP2 PUSH2 0xAAB JUMP JUMPDEST DUP3 MSTORE POP POP JUMP JUMPDEST PUSH1 0x0 PUSH2 0x100 DUP3 ADD SWAP1 POP DUP2 DUP2 SUB PUSH1 0x0 DUP4 ADD MSTORE PUSH2 0xAE1 DUP2 DUP12 PUSH2 0xA18 JUMP JUMPDEST SWAP1 POP PUSH2 0xAF0 PUSH1 0x20 DUP4 ADD DUP11 PUSH2 0xA83 JUMP JUMPDEST PUSH2 0xAFD PUSH1 0x40 DUP4 ADD DUP10 PUSH2 0xA83 JUMP JUMPDEST PUSH2 0xB0A PUSH1 0x60 DUP4 ADD DUP9 PUSH2 0xA9C JUMP JUMPDEST PUSH2 0xB17 PUSH1 0x80 DUP4 ADD DUP8 PUSH2 0xA9C JUMP JUMPDEST PUSH2 0xB24 PUSH1 0xA0 DUP4 ADD DUP7 PUSH2 0xA9C JUMP JUMPDEST PUSH2 0xB31 PUSH1 0xC0 DUP4 ADD DUP6 PUSH2 0xAB7 JUMP JUMPDEST PUSH2 0xB3E PUSH1 0xE0 DUP4 ADD DUP5 PUSH2 0xA9C JUMP JUMPDEST SWAP10 SWAP9 POP POP POP POP POP POP POP POP POP JUMP JUMPDEST PUSH2 0xB54 DUP2 PUSH2 0xA92 JUMP JUMPDEST DUP2 EQ PUSH2 0xB5F JUMPI PUSH1 0x0 DUP1 REVERT JUMPDEST POP JUMP JUMPDEST PUSH1 0x0 DUP2 CALLDATALOAD SWAP1 POP PUSH2 0xB71 DUP2 PUSH2 0xB4B JUMP JUMPDEST SWAP3 SWAP2 POP POP JUMP JUMPDEST PUSH1 0x0 PUSH1 0x20 DUP3 DUP5 SUB SLT ISZERO PUSH2 0xB8D JUMPI PUSH2 0xB8C PUSH2 0x724 JUMP JUMPDEST JUMPDEST PUSH1 0x0 PUSH2 0xB9B DUP5 DUP3 DUP6 ADD PUSH2 0xB62 JUMP JUMPDEST SWAP2 POP POP SWAP3 SWAP2 POP POP JUMP JUMPDEST PUSH1 0x0 DUP3 DUP3 MSTORE PUSH1 0x20 DUP3 ADD SWAP1 POP SWAP3 SWAP2 POP POP JUMP JUMPDEST PUSH1 0x0 PUSH2 0xBC0 DUP3 PUSH2 0x9D2 JUMP JUMPDEST PUSH2 0xBCA DUP2 DUP6 PUSH2 0xBA4 JUMP JUMPDEST SWAP4 POP PUSH2 0xBDA DUP2 DUP6 PUSH1 0x20 DUP7 ADD PUSH2 0x9EE JUMP JUMPDEST PUSH2 0xBE3 DUP2 PUSH2 0x733 JUMP JUMPDEST DUP5 ADD SWAP2 POP POP SWAP3 SWAP2 POP POP JUMP JUMPDEST PUSH1 0x0 PUSH1 0x40 DUP4 ADD PUSH1 0x0 DUP4 ADD MLOAD DUP5 DUP3 SUB PUSH1 0x0 DUP7 ADD MSTORE PUSH2 0xC0B DUP3 DUP3 PUSH2 0xBB5 JUMP JUMPDEST SWAP2 POP POP PUSH1 0x20 DUP4 ADD MLOAD DUP5 DUP3 SUB PUSH1 0x20 DUP7 ADD MSTORE PUSH2 0xC25 DUP3 DUP3 PUSH2 0xBB5 JUMP JUMPDEST SWAP2 POP POP DUP1 SWAP2 POP POP SWAP3 SWAP2 POP POP JUMP JUMPDEST PUSH1 0x0 PUSH1 0x20 DUP3 ADD SWAP1 POP DUP2 DUP2 SUB PUSH1 0x0 DUP4 ADD MSTORE PUSH2 0xC4C DUP2 DUP5 PUSH2 0xBEE JUMP JUMPDEST SWAP1 POP SWAP3 SWAP2 POP POP JUMP JUMPDEST PUSH1 0x0 DUP2 MLOAD SWAP1 POP SWAP2 SWAP1 POP JUMP JUMPDEST PUSH1 0x0 DUP3 DUP3 MSTORE PUSH1 0x20 DUP3 ADD SWAP1 POP SWAP3 SWAP2 POP POP JUMP JUMPDEST PUSH1 0x0 DUP2 SWAP1 POP PUSH1 0x20 DUP3 ADD SWAP1 POP SWAP2 SWAP1 POP JUMP JUMPDEST PUSH1 0x0 PUSH1 0x40 DUP4 ADD PUSH1 0x0 DUP4 ADD MLOAD DUP5 DUP3 SUB PUSH1 0x0 DUP7 ADD MSTORE PUSH2 0xC9D DUP3 DUP3 PUSH2 0xBB5 JUMP JUMPDEST SWAP2 POP POP PUSH1 0x20 DUP4 ADD MLOAD DUP5 DUP3 SUB PUSH1 0x20 DUP7 ADD MSTORE PUSH2 0xCB7 DUP3 DUP3 PUSH2 0xBB5 JUMP JUMPDEST SWAP2 POP POP DUP1 SWAP2 POP POP SWAP3 SWAP2 POP POP JUMP JUMPDEST PUSH1 0x0 PUSH2 0xCD0 DUP4 DUP4 PUSH2 0xC80 JUMP JUMPDEST SWAP1 POP SWAP3 SWAP2 POP POP JUMP JUMPDEST PUSH1 0x0 PUSH1 0x20 DUP3 ADD SWAP1 POP SWAP2 SWAP1 POP JUMP JUMPDEST PUSH1 0x0 PUSH2 0xCF0 DUP3 PUSH2 0xC54 JUMP JUMPDEST PUSH2 0xCFA DUP2 DUP6 PUSH2 0xC5F JUMP JUMPDEST SWAP4 POP DUP4 PUSH1 0x20 DUP3 MUL DUP6 ADD PUSH2 0xD0C DUP6 PUSH2 0xC70 JUMP JUMPDEST DUP1 PUSH1 0x0 JUMPDEST DUP6 DUP2 LT ISZERO PUSH2 0xD48 JUMPI DUP5 DUP5 SUB DUP10 MSTORE DUP2 MLOAD PUSH2 0xD29 DUP6 DUP3 PUSH2 0xCC4 JUMP JUMPDEST SWAP5 POP PUSH2 0xD34 DUP4 PUSH2 0xCD8 JUMP JUMPDEST SWAP3 POP PUSH1 0x20 DUP11 ADD SWAP10 POP POP PUSH1 0x1 DUP2 ADD SWAP1 POP PUSH2 0xD10 JUMP JUMPDEST POP DUP3 SWAP8 POP DUP8 SWAP6 POP POP POP POP POP POP SWAP3 SWAP2 POP POP JUMP JUMPDEST PUSH1 0x0 PUSH1 0x20 DUP3 ADD SWAP1 POP DUP2 DUP2 SUB PUSH1 0x0 DUP4 ADD MSTORE PUSH2 0xD74 DUP2 DUP5 PUSH2 0xCE5 JUMP JUMPDEST SWAP1 POP SWAP3 SWAP2 POP POP JUMP JUMPDEST PUSH32 0x4E487B7100000000000000000000000000000000000000000000000000000000 PUSH1 0x0 MSTORE PUSH1 0x32 PUSH1 0x4 MSTORE PUSH1 0x24 PUSH1 0x0 REVERT JUMPDEST PUSH32 0x4E487B7100000000000000000000000000000000000000000000000000000000 PUSH1 0x0 MSTORE PUSH1 0x22 PUSH1 0x4 MSTORE PUSH1 0x24 PUSH1 0x0 REVERT JUMPDEST PUSH1 0x0 PUSH1 0x2 DUP3 DIV SWAP1 POP PUSH1 0x1 DUP3 AND DUP1 PUSH2 0xDF2 JUMPI PUSH1 0x7F DUP3 AND SWAP2 POP JUMPDEST PUSH1 0x20 DUP3 LT DUP2 SUB PUSH2 0xE05 JUMPI PUSH2 0xE04 PUSH2 0xDAB JUMP JUMPDEST JUMPDEST POP SWAP2 SWAP1 POP JUMP JUMPDEST PUSH1 0x0 DUP2 SWAP1 POP DUP2 PUSH1 0x0 MSTORE PUSH1 0x20 PUSH1 0x0 KECCAK256 SWAP1 POP SWAP2 SWAP1 POP JUMP JUMPDEST PUSH1 0x0 PUSH1 0x20 PUSH1 0x1F DUP4 ADD DIV SWAP1 POP SWAP2 SWAP1 POP JUMP JUMPDEST PUSH1 0x0 DUP3 DUP3 SHL SWAP1 POP SWAP3 SWAP2 POP POP JUMP JUMPDEST PUSH1 0x0 PUSH1 0x8 DUP4 MUL PUSH2 0xE6D PUSH32 0xFFFFFFFFFFFFFFFFFFFFFFFFFFFFFFFFFFFFFFFFFFFFFFFFFFFFFFFFFFFFFFFF DUP3 PUSH2 0xE30 JUMP JUMPDEST PUSH2 0xE77 DUP7 DUP4 PUSH2 0xE30 JUMP JUMPDEST SWAP6 POP DUP1 NOT DUP5 AND SWAP4 POP DUP1 DUP7 AND DUP5 OR SWAP3 POP POP POP SWAP4 SWAP3 POP POP POP JUMP JUMPDEST PUSH1 0x0 DUP2 SWAP1 POP SWAP2 SWAP1 POP JUMP JUMPDEST PUSH1 0x0 PUSH2 0xEB4 PUSH2 0xEAF PUSH2 0xEAA DUP5 PUSH2 0xA92 JUMP JUMPDEST PUSH2 0xE8F JUMP JUMPDEST PUSH2 0xA92 JUMP JUMPDEST SWAP1 POP SWAP2 SWAP1 POP JUMP JUMPDEST PUSH1 0x0 DUP2 SWAP1 POP SWAP2 SWAP1 POP JUMP JUMPDEST PUSH2 0xECE DUP4 PUSH2 0xE99 JUMP JUMPDEST PUSH2 0xEE2 PUSH2 0xEDA DUP3 PUSH2 0xEBB JUMP JUMPDEST DUP5 DUP5 SLOAD PUSH2 0xE3D JUMP JUMPDEST DUP3 SSTORE POP POP POP POP JUMP JUMPDEST PUSH1 0x0 SWAP1 JUMP JUMPDEST PUSH2 0xEF7 PUSH2 0xEEA JUMP JUMPDEST PUSH2 0xF02 DUP2 DUP5 DUP5 PUSH2 0xEC5 JUMP JUMPDEST POP POP POP JUMP JUMPDEST JUMPDEST DUP2 DUP2 LT ISZERO PUSH2 0xF26 JUMPI PUSH2 0xF1B PUSH1 0x0 DUP3 PUSH2 0xEEF JUMP JUMPDEST PUSH1 0x1 DUP2 ADD SWAP1 POP PUSH2 0xF08 JUMP JUMPDEST POP POP JUMP JUMPDEST PUSH1 0x1F DUP3 GT ISZERO PUSH2 0xF6B JUMPI PUSH2 0xF3C DUP2 PUSH2 0xE0B JUMP JUMPDEST PUSH2 0xF45 DUP5 PUSH2 0xE20 JUMP JUMPDEST DUP2 ADD PUSH1 0x20 DUP6 LT ISZERO PUSH2 0xF54 JUMPI DUP2 SWAP1 POP JUMPDEST PUSH2 0xF68 PUSH2 0xF60 DUP6 PUSH2 0xE20 JUMP JUMPDEST DUP4 ADD DUP3 PUSH2 0xF07 JUMP JUMPDEST POP POP JUMPDEST POP POP POP JUMP JUMPDEST PUSH1 0x0 DUP3 DUP3 SHR SWAP1 POP SWAP3 SWAP2 POP POP JUMP JUMPDEST PUSH1 0x0 PUSH2 0xF8E PUSH1 0x0 NOT DUP5 PUSH1 0x8 MUL PUSH2 0xF70 JUMP JUMPDEST NOT DUP1 DUP4 AND SWAP2 POP POP SWAP3 SWAP2 POP POP JUMP JUMPDEST PUSH1 0x0 PUSH2 0xFA7 DUP4 DUP4 PUSH2 0xF7D JUMP JUMPDEST SWAP2 POP DUP3 PUSH1 0x2 MUL DUP3 OR SWAP1 POP SWAP3 SWAP2 POP POP JUMP JUMPDEST PUSH2 0xFC0 DUP3 PUSH2 0x9D2 JUMP JUMPDEST PUSH8 0xFFFFFFFFFFFFFFFF DUP2 GT ISZERO PUSH2 0xFD9 JUMPI PUSH2 0xFD8 PUSH2 0x744 JUMP JUMPDEST JUMPDEST PUSH2 0xFE3 DUP3 SLOAD PUSH2 0xDDA JUMP JUMPDEST PUSH2 0xFEE DUP3 DUP3 DUP6 PUSH2 0xF2A JUMP JUMPDEST PUSH1 0x0 PUSH1 0x20 SWAP1 POP PUSH1 0x1F DUP4 GT PUSH1 0x1 DUP2 EQ PUSH2 0x1021 JUMPI PUSH1 0x0 DUP5 ISZERO PUSH2 0x100F JUMPI DUP3 DUP8 ADD MLOAD SWAP1 POP JUMPDEST PUSH2 0x1019 DUP6 DUP3 PUSH2 0xF9B JUMP JUMPDEST DUP7 SSTORE POP PUSH2 0x1081 JUMP JUMPDEST PUSH1 0x1F NOT DUP5 AND PUSH2 0x102F DUP7 PUSH2 0xE0B JUMP JUMPDEST PUSH1 0x0 JUMPDEST DUP3 DUP2 LT ISZERO PUSH2 0x1057 JUMPI DUP5 DUP10 ADD MLOAD DUP3 SSTORE PUSH1 0x1 DUP3 ADD SWAP2 POP PUSH1 0x20 DUP6 ADD SWAP5 POP PUSH1 0x20 DUP2 ADD SWAP1 POP PUSH2 0x1032 JUMP JUMPDEST DUP7 DUP4 LT ISZERO PUSH2 0x1074 JUMPI DUP5 DUP10 ADD MLOAD PUSH2 0x1070 PUSH1 0x1F DUP10 AND DUP3 PUSH2 0xF7D JUMP JUMPDEST DUP4 SSTORE POP JUMPDEST PUSH1 0x1 PUSH1 0x2 DUP9 MUL ADD DUP9 SSTORE POP POP POP JUMPDEST POP POP POP POP POP POP JUMP JUMPDEST PUSH32 0x4E487B7100000000000000000000000000000000000000000000000000000000 PUSH1 0x0 MSTORE PUSH1 0x11 PUSH1 0x4 MSTORE PUSH1 0x24 PUSH1 0x0 REVERT JUMPDEST PUSH1 0x0 PUSH2 0x10C3 DUP3 PUSH2 0xA92 JUMP JUMPDEST SWAP2 POP PUSH32 0xFFFFFFFFFFFFFFFFFFFFFFFFFFFFFFFFFFFFFFFFFFFFFFFFFFFFFFFFFFFFFFFF DUP3 SUB PUSH2 0x10F5 JUMPI PUSH2 0x10F4 PUSH2 0x1089 JUMP JUMPDEST JUMPDEST PUSH1 0x1 DUP3 ADD SWAP1 POP SWAP2 SWAP1 POP JUMP INVALID LOG2 PUSH5 0x6970667358 0x22 SLT KECCAK256 MOD BLOCKHASH BASEFEE GAS 0xAA ADDRESS BYTE 0xF 0x29 0xB3 DUP12 DUP2 EXTCODESIZE 0xCB 0xE0 0xE9 0xF8 0xC8 0xB0 JUMP 0xE6 0xB9 0xC0 GASPRICE 0xB8 0x22 0x26 0xE6 SHL 0xB3 RETURNDATASIZE 0x21 PUSH5 0x736F6C6343 STOP ADDMOD GT STOP CALLER "
		},
		"gasEstimates": {
			"creation": {
				"codeDepositCost": "881200",
				"executionCost": "infinite",
				"totalCost": "infinite"
			},
			"external": {
				"getPromoData()": "infinite",
				"getPromoDataByIndex(uint256)": "infinite",
				"getSummary()": "infinite",
				"saveData(string[],string[])": "infinite",
				"transferValue()": "infinite"
			}
		},
		"methodIdentifiers": {
			"getPromoData()": "cf5b4fb1",
			"getPromoDataByIndex(uint256)": "c0882525",
			"getSummary()": "4051ddac",
			"saveData(string[],string[])": "35fa96bb",
			"transferValue()": "2d9ed8d5"
		}
	},
	"abi": [
		{
			"inputs": [
				{
					"internalType": "string",
					"name": "_description",
					"type": "string"
				},
				{
					"internalType": "uint256",
					"name": "_estimatedValue",
					"type": "uint256"
				},
				{
					"internalType": "address",
					"name": "_accountId",
					"type": "address"
				},
				{
					"internalType": "address payable",
					"name": "_reciever",
					"type": "address"
				}
			],
			"stateMutability": "nonpayable",
			"type": "constructor"
		},
		{
			"inputs": [],
			"name": "getPromoData",
			"outputs": [
				{
					"components": [
						{
							"internalType": "string",
							"name": "promoDesc",
							"type": "string"
						},
						{
							"internalType": "string",
							"name": "promoParsedResult",
							"type": "string"
						}
					],
					"internalType": "struct PromoData.Promo[]",
					"name": "",
					"type": "tuple[]"
				}
			],
			"stateMutability": "view",
			"type": "function"
		},
		{
			"inputs": [
				{
					"internalType": "uint256",
					"name": "index",
					"type": "uint256"
				}
			],
			"name": "getPromoDataByIndex",
			"outputs": [
				{
					"components": [
						{
							"internalType": "string",
							"name": "promoDesc",
							"type": "string"
						},
						{
							"internalType": "string",
							"name": "promoParsedResult",
							"type": "string"
						}
					],
					"internalType": "struct PromoData.Promo",
					"name": "",
					"type": "tuple"
				}
			],
			"stateMutability": "view",
			"type": "function"
		},
		{
			"inputs": [],
			"name": "getSummary",
			"outputs": [
				{
					"internalType": "string",
					"name": "",
					"type": "string"
				},
				{
					"internalType": "address",
					"name": "",
					"type": "address"
				},
				{
					"internalType": "address",
					"name": "",
					"type": "address"
				},
				{
					"internalType": "uint256",
					"name": "",
					"type": "uint256"
				},
				{
					"internalType": "uint256",
					"name": "",
					"type": "uint256"
				},
				{
					"internalType": "uint256",
					"name": "",
					"type": "uint256"
				},
				{
					"internalType": "bool",
					"name": "",
					"type": "bool"
				},
				{
					"internalType": "uint256",
					"name": "",
					"type": "uint256"
				}
			],
			"stateMutability": "view",
			"type": "function"
		},
		{
			"inputs": [
				{
					"internalType": "string[]",
					"name": "promoDescList",
					"type": "string[]"
				},
				{
					"internalType": "string[]",
					"name": "promoParsedResultList",
					"type": "string[]"
				}
			],
			"name": "saveData",
			"outputs": [],
			"stateMutability": "payable",
			"type": "function"
		},
		{
			"inputs": [],
			"name": "transferValue",
			"outputs": [],
			"stateMutability": "nonpayable",
			"type": "function"
		}
	]
}